{
  "_format": "hh-sol-artifact-1",
  "contractName": "DataToken",
  "sourceName": "contracts/DataToken.sol",
  "abi": [
    {
      "inputs": [],
      "stateMutability": "nonpayable",
      "type": "constructor"
    },
    {
      "inputs": [],
      "name": "ERC721EnumerableForbiddenBatchMint",
      "type": "error"
    },
    {
      "inputs": [
        {
          "internalType": "address",
          "name": "sender",
          "type": "address"
        },
        {
          "internalType": "uint256",
          "name": "tokenId",
          "type": "uint256"
        },
        {
          "internalType": "address",
          "name": "owner",
          "type": "address"
        }
      ],
      "name": "ERC721IncorrectOwner",
      "type": "error"
    },
    {
      "inputs": [
        {
          "internalType": "address",
          "name": "operator",
          "type": "address"
        },
        {
          "internalType": "uint256",
          "name": "tokenId",
          "type": "uint256"
        }
      ],
      "name": "ERC721InsufficientApproval",
      "type": "error"
    },
    {
      "inputs": [
        {
          "internalType": "address",
          "name": "approver",
          "type": "address"
        }
      ],
      "name": "ERC721InvalidApprover",
      "type": "error"
    },
    {
      "inputs": [
        {
          "internalType": "address",
          "name": "operator",
          "type": "address"
        }
      ],
      "name": "ERC721InvalidOperator",
      "type": "error"
    },
    {
      "inputs": [
        {
          "internalType": "address",
          "name": "owner",
          "type": "address"
        }
      ],
      "name": "ERC721InvalidOwner",
      "type": "error"
    },
    {
      "inputs": [
        {
          "internalType": "address",
          "name": "receiver",
          "type": "address"
        }
      ],
      "name": "ERC721InvalidReceiver",
      "type": "error"
    },
    {
      "inputs": [
        {
          "internalType": "address",
          "name": "sender",
          "type": "address"
        }
      ],
      "name": "ERC721InvalidSender",
      "type": "error"
    },
    {
      "inputs": [
        {
          "internalType": "uint256",
          "name": "tokenId",
          "type": "uint256"
        }
      ],
      "name": "ERC721NonexistentToken",
      "type": "error"
    },
    {
      "inputs": [
        {
          "internalType": "address",
          "name": "owner",
          "type": "address"
        },
        {
          "internalType": "uint256",
          "name": "index",
          "type": "uint256"
        }
      ],
      "name": "ERC721OutOfBoundsIndex",
      "type": "error"
    },
    {
      "anonymous": false,
      "inputs": [
        {
          "indexed": true,
          "internalType": "address",
          "name": "owner",
          "type": "address"
        },
        {
          "indexed": true,
          "internalType": "address",
          "name": "approved",
          "type": "address"
        },
        {
          "indexed": true,
          "internalType": "uint256",
          "name": "tokenId",
          "type": "uint256"
        }
      ],
      "name": "Approval",
      "type": "event"
    },
    {
      "anonymous": false,
      "inputs": [
        {
          "indexed": true,
          "internalType": "address",
          "name": "owner",
          "type": "address"
        },
        {
          "indexed": true,
          "internalType": "address",
          "name": "operator",
          "type": "address"
        },
        {
          "indexed": false,
          "internalType": "bool",
          "name": "approved",
          "type": "bool"
        }
      ],
      "name": "ApprovalForAll",
      "type": "event"
    },
    {
      "anonymous": false,
      "inputs": [
        {
          "indexed": false,
          "internalType": "uint256",
          "name": "_fromTokenId",
          "type": "uint256"
        },
        {
          "indexed": false,
          "internalType": "uint256",
          "name": "_toTokenId",
          "type": "uint256"
        }
      ],
      "name": "BatchMetadataUpdate",
      "type": "event"
    },
    {
      "anonymous": false,
      "inputs": [
        {
          "indexed": false,
          "internalType": "uint256",
          "name": "_tokenId",
          "type": "uint256"
        }
      ],
      "name": "MetadataUpdate",
      "type": "event"
    },
    {
      "anonymous": false,
      "inputs": [
        {
          "indexed": false,
          "internalType": "uint256",
          "name": "tokenId",
          "type": "uint256"
        }
      ],
      "name": "TokenBurned",
      "type": "event"
    },
    {
      "anonymous": false,
      "inputs": [
        {
          "indexed": false,
          "internalType": "uint256",
          "name": "tokenId",
          "type": "uint256"
        },
        {
          "indexed": false,
          "internalType": "address",
          "name": "to",
          "type": "address"
        },
        {
          "indexed": false,
          "internalType": "string",
          "name": "uri",
          "type": "string"
        }
      ],
      "name": "TokenMinted",
      "type": "event"
    },
    {
      "anonymous": false,
      "inputs": [
        {
          "indexed": false,
          "internalType": "uint256",
          "name": "tokenId",
          "type": "uint256"
        },
        {
          "indexed": false,
          "internalType": "address",
          "name": "to",
          "type": "address"
        },
        {
          "indexed": false,
          "internalType": "address",
          "name": "from",
          "type": "address"
        }
      ],
      "name": "TokenTransferred",
      "type": "event"
    },
    {
      "anonymous": false,
      "inputs": [
        {
          "indexed": true,
          "internalType": "address",
          "name": "from",
          "type": "address"
        },
        {
          "indexed": true,
          "internalType": "address",
          "name": "to",
          "type": "address"
        },
        {
          "indexed": true,
          "internalType": "uint256",
          "name": "tokenId",
          "type": "uint256"
        }
      ],
      "name": "Transfer",
      "type": "event"
    },
    {
      "inputs": [
        {
          "internalType": "address",
          "name": "to",
          "type": "address"
        },
        {
          "internalType": "uint256",
          "name": "tokenId",
          "type": "uint256"
        }
      ],
      "name": "approve",
      "outputs": [],
      "stateMutability": "nonpayable",
      "type": "function"
    },
    {
      "inputs": [
        {
          "internalType": "address",
          "name": "owner",
          "type": "address"
        }
      ],
      "name": "balanceOf",
      "outputs": [
        {
          "internalType": "uint256",
          "name": "",
          "type": "uint256"
        }
      ],
      "stateMutability": "view",
      "type": "function"
    },
    {
      "inputs": [
        {
          "internalType": "uint256",
          "name": "tokenId",
          "type": "uint256"
        }
      ],
      "name": "burn",
      "outputs": [],
      "stateMutability": "nonpayable",
      "type": "function"
    },
    {
      "inputs": [
        {
          "internalType": "uint256",
          "name": "tokenId",
          "type": "uint256"
        }
      ],
      "name": "burnToken",
      "outputs": [],
      "stateMutability": "nonpayable",
      "type": "function"
    },
    {
      "inputs": [
        {
          "internalType": "uint256",
          "name": "tokenId",
          "type": "uint256"
        }
      ],
      "name": "getApproved",
      "outputs": [
        {
          "internalType": "address",
          "name": "",
          "type": "address"
        }
      ],
      "stateMutability": "view",
      "type": "function"
    },
    {
      "inputs": [
        {
          "internalType": "address",
          "name": "owner",
          "type": "address"
        },
        {
          "internalType": "address",
          "name": "operator",
          "type": "address"
        }
      ],
      "name": "isApprovedForAll",
      "outputs": [
        {
          "internalType": "bool",
          "name": "",
          "type": "bool"
        }
      ],
      "stateMutability": "view",
      "type": "function"
    },
    {
      "inputs": [
        {
          "internalType": "address",
          "name": "to",
          "type": "address"
        },
        {
          "internalType": "string",
          "name": "uri",
          "type": "string"
        }
      ],
      "name": "mint",
      "outputs": [
        {
          "internalType": "uint256",
          "name": "",
          "type": "uint256"
        }
      ],
      "stateMutability": "nonpayable",
      "type": "function"
    },
    {
      "inputs": [],
      "name": "name",
      "outputs": [
        {
          "internalType": "string",
          "name": "",
          "type": "string"
        }
      ],
      "stateMutability": "view",
      "type": "function"
    },
    {
      "inputs": [
        {
          "internalType": "uint256",
          "name": "tokenId",
          "type": "uint256"
        }
      ],
      "name": "ownerOf",
      "outputs": [
        {
          "internalType": "address",
          "name": "",
          "type": "address"
        }
      ],
      "stateMutability": "view",
      "type": "function"
    },
    {
      "inputs": [
        {
          "internalType": "address",
          "name": "from",
          "type": "address"
        },
        {
          "internalType": "address",
          "name": "to",
          "type": "address"
        },
        {
          "internalType": "uint256",
          "name": "tokenId",
          "type": "uint256"
        }
      ],
      "name": "safeTransferFrom",
      "outputs": [],
      "stateMutability": "nonpayable",
      "type": "function"
    },
    {
      "inputs": [
        {
          "internalType": "address",
          "name": "from",
          "type": "address"
        },
        {
          "internalType": "address",
          "name": "to",
          "type": "address"
        },
        {
          "internalType": "uint256",
          "name": "tokenId",
          "type": "uint256"
        },
        {
          "internalType": "bytes",
          "name": "data",
          "type": "bytes"
        }
      ],
      "name": "safeTransferFrom",
      "outputs": [],
      "stateMutability": "nonpayable",
      "type": "function"
    },
    {
      "inputs": [
        {
          "internalType": "address",
          "name": "operator",
          "type": "address"
        },
        {
          "internalType": "bool",
          "name": "approved",
          "type": "bool"
        }
      ],
      "name": "setApprovalForAll",
      "outputs": [],
      "stateMutability": "nonpayable",
      "type": "function"
    },
    {
      "inputs": [
        {
          "internalType": "bytes4",
          "name": "interfaceId",
          "type": "bytes4"
        }
      ],
      "name": "supportsInterface",
      "outputs": [
        {
          "internalType": "bool",
          "name": "",
          "type": "bool"
        }
      ],
      "stateMutability": "view",
      "type": "function"
    },
    {
      "inputs": [],
      "name": "symbol",
      "outputs": [
        {
          "internalType": "string",
          "name": "",
          "type": "string"
        }
      ],
      "stateMutability": "view",
      "type": "function"
    },
    {
      "inputs": [
        {
          "internalType": "uint256",
          "name": "index",
          "type": "uint256"
        }
      ],
      "name": "tokenByIndex",
      "outputs": [
        {
          "internalType": "uint256",
          "name": "",
          "type": "uint256"
        }
      ],
      "stateMutability": "view",
      "type": "function"
    },
    {
      "inputs": [
        {
          "internalType": "address",
          "name": "owner",
          "type": "address"
        },
        {
          "internalType": "uint256",
          "name": "index",
          "type": "uint256"
        }
      ],
      "name": "tokenOfOwnerByIndex",
      "outputs": [
        {
          "internalType": "uint256",
          "name": "",
          "type": "uint256"
        }
      ],
      "stateMutability": "view",
      "type": "function"
    },
    {
      "inputs": [
        {
          "internalType": "uint256",
          "name": "tokenId",
          "type": "uint256"
        }
      ],
      "name": "tokenURI",
      "outputs": [
        {
          "internalType": "string",
          "name": "",
          "type": "string"
        }
      ],
      "stateMutability": "view",
      "type": "function"
    },
    {
      "inputs": [
        {
          "internalType": "address",
          "name": "owner",
          "type": "address"
        }
      ],
      "name": "tokensOfOwner",
      "outputs": [
        {
          "internalType": "string[]",
          "name": "",
          "type": "string[]"
        }
      ],
      "stateMutability": "view",
      "type": "function"
    },
    {
      "inputs": [],
      "name": "totalSupply",
      "outputs": [
        {
          "internalType": "uint256",
          "name": "",
          "type": "uint256"
        }
      ],
      "stateMutability": "view",
      "type": "function"
    },
    {
      "inputs": [
        {
          "internalType": "address",
          "name": "from",
          "type": "address"
        },
        {
          "internalType": "address",
          "name": "to",
          "type": "address"
        },
        {
          "internalType": "uint256",
          "name": "tokenId",
          "type": "uint256"
        }
      ],
      "name": "transferFrom",
      "outputs": [],
      "stateMutability": "nonpayable",
      "type": "function"
    },
    {
      "inputs": [
        {
          "internalType": "address",
          "name": "to",
          "type": "address"
        },
        {
          "internalType": "uint256",
          "name": "tokenId",
          "type": "uint256"
        }
      ],
      "name": "transferToken",
      "outputs": [],
      "stateMutability": "nonpayable",
      "type": "function"
    }
  ],
  "bytecode": "0x608060405234801561001057600080fd5b506040518060400160405280600981526020017f44617461546f6b656e00000000000000000000000000000000000000000000008152506040518060400160405280600381526020017f44544b0000000000000000000000000000000000000000000000000000000000815250816000908161008c91906102f4565b50806001908161009c91906102f4565b5050506103c6565b600081519050919050565b7f4e487b7100000000000000000000000000000000000000000000000000000000600052604160045260246000fd5b7f4e487b7100000000000000000000000000000000000000000000000000000000600052602260045260246000fd5b6000600282049050600182168061012557607f821691505b602082108103610138576101376100de565b5b50919050565b60008190508160005260206000209050919050565b60006020601f8301049050919050565b600082821b905092915050565b6000600883026101a07fffffffffffffffffffffffffffffffffffffffffffffffffffffffffffffffff82610163565b6101aa8683610163565b95508019841693508086168417925050509392505050565b6000819050919050565b6000819050919050565b60006101f16101ec6101e7846101c2565b6101cc565b6101c2565b9050919050565b6000819050919050565b61020b836101d6565b61021f610217826101f8565b848454610170565b825550505050565b600090565b610234610227565b61023f818484610202565b505050565b5b818110156102635761025860008261022c565b600181019050610245565b5050565b601f8211156102a8576102798161013e565b61028284610153565b81016020851015610291578190505b6102a561029d85610153565b830182610244565b50505b505050565b600082821c905092915050565b60006102cb600019846008026102ad565b1980831691505092915050565b60006102e483836102ba565b9150826002028217905092915050565b6102fd826100a4565b67ffffffffffffffff811115610316576103156100af565b5b610320825461010d565b61032b828285610267565b600060209050601f83116001811461035e576000841561034c578287015190505b61035685826102d8565b8655506103be565b601f19841661036c8661013e565b60005b828110156103945784890151825560018201915060208501945060208101905061036f565b868310156103b157848901516103ad601f8916826102ba565b8355505b6001600288020188555050505b505050505050565b613796806103d56000396000f3fe608060405234801561001057600080fd5b50600436106101375760003560e01c80634f6ccce7116100b857806395d89b411161007c57806395d89b4114610370578063a22cb4651461038e578063b88d4fde146103aa578063c87b56dd146103c6578063d0def521146103f6578063e985e9c51461042657610137565b80634f6ccce7146102945780636352211e146102c457806370a08231146102f45780637b47ec1a146103245780638462151c1461034057610137565b806318160ddd116100ff57806318160ddd146101f257806323b872dd146102105780632f745c591461022c57806342842e0e1461025c57806342966c681461027857610137565b806301ffc9a71461013c57806306fdde031461016c578063081812fc1461018a578063095ea7b3146101ba5780631072cbea146101d6575b600080fd5b61015660048036038101906101519190612887565b610456565b60405161016391906128cf565b60405180910390f35b610174610468565b604051610181919061297a565b60405180910390f35b6101a4600480360381019061019f91906129d2565b6104fa565b6040516101b19190612a40565b60405180910390f35b6101d460048036038101906101cf9190612a87565b610516565b005b6101f060048036038101906101eb9190612a87565b61052c565b005b6101fa61062b565b6040516102079190612ad6565b60405180910390f35b61022a60048036038101906102259190612af1565b61063a565b005b61024660048036038101906102419190612a87565b61073c565b6040516102539190612ad6565b60405180910390f35b61027660048036038101906102719190612af1565b610750565b005b610292600480360381019061028d91906129d2565b610770565b005b6102ae60048036038101906102a991906129d2565b610787565b6040516102bb9190612ad6565b60405180910390f35b6102de60048036038101906102d991906129d2565b610799565b6040516102eb9190612a40565b60405180910390f35b61030e60048036038101906103099190612b44565b6107ab565b60405161031b9190612ad6565b60405180910390f35b61033e600480360381019061033991906129d2565b610865565b005b61035a60048036038101906103559190612b44565b61095d565b6040516103679190612c7d565b60405180910390f35b610378610a11565b604051610385919061297a565b60405180910390f35b6103a860048036038101906103a39190612ccb565b610aa3565b005b6103c460048036038101906103bf9190612e40565b610ab9565b005b6103e060048036038101906103db91906129d2565b610ade565b6040516103ed919061297a565b60405180910390f35b610410600480360381019061040b9190612f64565b610b66565b60405161041d9190612ad6565b60405180910390f35b610440600480360381019061043b9190612fc0565b610cd6565b60405161044d91906128cf565b60405180910390f35b600061046182610d6a565b9050919050565b6060600080546104779061302f565b80601f01602080910402602001604051908101604052809291908181526020018280546104a39061302f565b80156104f05780601f106104c5576101008083540402835291602001916104f0565b820191906000526020600020905b8154815290600101906020018083116104d357829003601f168201915b5050505050905090565b600061050582610dcb565b5061050f82610e53565b9050919050565b6105288282610523610e90565b610e98565b5050565b3373ffffffffffffffffffffffffffffffffffffffff1661054c82610799565b73ffffffffffffffffffffffffffffffffffffffff16146105a2576040517f08c379a0000000000000000000000000000000000000000000000000000000008152600401610599906130ac565b60405180910390fd5b6105ad338383610eaa565b6105ec6040518060400160405280601e81526020017f5472616e7366657272696e6720746f6b656e20776974682049443a202573000081525082611017565b7fa84f763be5bb36163517fb87c7af39f875a97866fdf7806eb1b3eac837ae35ea81833360405161061f939291906130cc565b60405180910390a15050565b60006106356110b3565b905090565b600073ffffffffffffffffffffffffffffffffffffffff168273ffffffffffffffffffffffffffffffffffffffff16036106ac5760006040517f64a0ae920000000000000000000000000000000000000000000000000000000081526004016106a39190612a40565b60405180910390fd5b60006106c083836106bb610e90565b6110c0565b90508373ffffffffffffffffffffffffffffffffffffffff168173ffffffffffffffffffffffffffffffffffffffff1614610736578382826040517f64283d7b00000000000000000000000000000000000000000000000000000000815260040161072d93929190613103565b60405180910390fd5b50505050565b600061074883836110d6565b905092915050565b61076b83838360405180602001604052806000815250610ab9565b505050565b61078360008261077e610e90565b6110c0565b5050565b60006107928261117f565b9050919050565b60006107a482610dcb565b9050919050565b60008073ffffffffffffffffffffffffffffffffffffffff168273ffffffffffffffffffffffffffffffffffffffff160361081e5760006040517f89c62b640000000000000000000000000000000000000000000000000000000081526004016108159190612a40565b60405180910390fd5b600360008373ffffffffffffffffffffffffffffffffffffffff1673ffffffffffffffffffffffffffffffffffffffff168152602001908152602001600020549050919050565b3373ffffffffffffffffffffffffffffffffffffffff1661088582610799565b73ffffffffffffffffffffffffffffffffffffffff16146108db576040517f08c379a00000000000000000000000000000000000000000000000000000000081526004016108d2906130ac565b60405180910390fd5b6108e4816111f5565b6109236040518060400160405280601981526020017f4275726e696e6720746f6b656e20776974682049443a2025730000000000000081525082611017565b7f0c526103b8f47af5516191d0c89a598755bd00faa211a3cb52e4c2cc782f7fe2816040516109529190612ad6565b60405180910390a150565b6060600061096a836107ab565b905060008167ffffffffffffffff81111561098857610987612d15565b5b6040519080825280602002602001820160405280156109bb57816020015b60608152602001906001900390816109a65790505b50905060005b82811015610a06576109db6109d6868361073c565b610ade565b8282815181106109ee576109ed61313a565b5b602002602001018190525080806001019150506109c1565b508092505050919050565b606060018054610a209061302f565b80601f0160208091040260200160405190810160405280929190818152602001828054610a4c9061302f565b8015610a995780601f10610a6e57610100808354040283529160200191610a99565b820191906000526020600020905b815481529060010190602001808311610a7c57829003601f168201915b5050505050905090565b610ab5610aae610e90565b838361127b565b5050565b610ac484848461063a565b610ad8610acf610e90565b858585856113ea565b50505050565b60603373ffffffffffffffffffffffffffffffffffffffff16610b0083610799565b73ffffffffffffffffffffffffffffffffffffffff1614610b56576040517f08c379a0000000000000000000000000000000000000000000000000000000008152600401610b4d906130ac565b60405180910390fd5b610b5f8261159b565b9050919050565b600080600b6000815480929190610b7c90613198565b919050559050610b8c84826116ae565b610b9681846116cc565b610bd56040518060400160405280601981526020017f4d696e74696e6720746f6b656e20776974682049443a2025730000000000000081525082611017565b610c146040518060400160405280601a81526020017f4d696e74696e6720746f6b656e2077697468205552493a20257300000000000081525084611728565b610c536040518060400160405280601c81526020017f4d696e74696e6720746f6b656e20746f20616464726573733a20257300000000815250856117c4565b7fec2cd236ed6d37bf5a71276ac93889db12834493a090efd543a3d2eca8dcdcc8818585604051610c86939291906131e0565b60405180910390a1610ccc6040518060400160405280601981526020017f546f6b656e206d696e746564207375636365737366756c6c7900000000000000815250611860565b8091505092915050565b6000600560008473ffffffffffffffffffffffffffffffffffffffff1673ffffffffffffffffffffffffffffffffffffffff16815260200190815260200160002060008373ffffffffffffffffffffffffffffffffffffffff1673ffffffffffffffffffffffffffffffffffffffff16815260200190815260200160002060009054906101000a900460ff16905092915050565b6000634906490660e01b7bffffffffffffffffffffffffffffffffffffffffffffffffffffffff1916827bffffffffffffffffffffffffffffffffffffffffffffffffffffffff19161480610dc45750610dc3826118f9565b5b9050919050565b600080610dd783611973565b9050600073ffffffffffffffffffffffffffffffffffffffff168173ffffffffffffffffffffffffffffffffffffffff1603610e4a57826040517f7e273289000000000000000000000000000000000000000000000000000000008152600401610e419190612ad6565b60405180910390fd5b80915050919050565b60006004600083815260200190815260200160002060009054906101000a900473ffffffffffffffffffffffffffffffffffffffff169050919050565b600033905090565b610ea583838360016119b0565b505050565b600073ffffffffffffffffffffffffffffffffffffffff168273ffffffffffffffffffffffffffffffffffffffff1603610f1c5760006040517f64a0ae92000000000000000000000000000000000000000000000000000000008152600401610f139190612a40565b60405180910390fd5b6000610f2a838360006110c0565b9050600073ffffffffffffffffffffffffffffffffffffffff168173ffffffffffffffffffffffffffffffffffffffff1603610f9d57816040517f7e273289000000000000000000000000000000000000000000000000000000008152600401610f949190612ad6565b60405180910390fd5b8373ffffffffffffffffffffffffffffffffffffffff168173ffffffffffffffffffffffffffffffffffffffff1614611011578382826040517f64283d7b00000000000000000000000000000000000000000000000000000000815260040161100893929190613103565b60405180910390fd5b50505050565b6110af828260405160240161102d92919061321e565b6040516020818303038152906040527fb60e72cc000000000000000000000000000000000000000000000000000000007bffffffffffffffffffffffffffffffffffffffffffffffffffffffff19166020820180517bffffffffffffffffffffffffffffffffffffffffffffffffffffffff8381831617835250505050611b75565b5050565b6000600880549050905090565b60006110cd848484611b8f565b90509392505050565b60006110e1836107ab565b82106111265782826040517fa57d13dc00000000000000000000000000000000000000000000000000000000815260040161111d92919061324e565b60405180910390fd5b600660008473ffffffffffffffffffffffffffffffffffffffff1673ffffffffffffffffffffffffffffffffffffffff168152602001908152602001600020600083815260200190815260200160002054905092915050565b600061118961062b565b82106111cf576000826040517fa57d13dc0000000000000000000000000000000000000000000000000000000081526004016111c692919061324e565b60405180910390fd5b600882815481106111e3576111e261313a565b5b90600052602060002001549050919050565b600061120460008360006110c0565b9050600073ffffffffffffffffffffffffffffffffffffffff168173ffffffffffffffffffffffffffffffffffffffff160361127757816040517f7e27328900000000000000000000000000000000000000000000000000000000815260040161126e9190612ad6565b60405180910390fd5b5050565b600073ffffffffffffffffffffffffffffffffffffffff168273ffffffffffffffffffffffffffffffffffffffff16036112ec57816040517f5b08ba180000000000000000000000000000000000000000000000000000000081526004016112e39190612a40565b60405180910390fd5b80600560008573ffffffffffffffffffffffffffffffffffffffff1673ffffffffffffffffffffffffffffffffffffffff16815260200190815260200160002060008473ffffffffffffffffffffffffffffffffffffffff1673ffffffffffffffffffffffffffffffffffffffff16815260200190815260200160002060006101000a81548160ff0219169083151502179055508173ffffffffffffffffffffffffffffffffffffffff168373ffffffffffffffffffffffffffffffffffffffff167f17307eab39ab6107e8899845ad3d59bd9653f200f220920489ca2b5937696c31836040516113dd91906128cf565b60405180910390a3505050565b60008373ffffffffffffffffffffffffffffffffffffffff163b1115611594578273ffffffffffffffffffffffffffffffffffffffff1663150b7a02868685856040518563ffffffff1660e01b815260040161144994939291906132cc565b6020604051808303816000875af192505050801561148557506040513d601f19601f82011682018060405250810190611482919061332d565b60015b611509573d80600081146114b5576040519150601f19603f3d011682016040523d82523d6000602084013e6114ba565b606091505b50600081510361150157836040517f64a0ae920000000000000000000000000000000000000000000000000000000081526004016114f89190612a40565b60405180910390fd5b805181602001fd5b63150b7a0260e01b7bffffffffffffffffffffffffffffffffffffffffffffffffffffffff1916817bffffffffffffffffffffffffffffffffffffffffffffffffffffffff19161461159257836040517f64a0ae920000000000000000000000000000000000000000000000000000000081526004016115899190612a40565b60405180910390fd5b505b5050505050565b60606115a682610dcb565b506000600a600084815260200190815260200160002080546115c79061302f565b80601f01602080910402602001604051908101604052809291908181526020018280546115f39061302f565b80156116405780601f1061161557610100808354040283529160200191611640565b820191906000526020600020905b81548152906001019060200180831161162357829003601f168201915b505050505090506000611651611cac565b905060008151036116665781925050506116a9565b60008251111561169b578082604051602001611683929190613396565b604051602081830303815290604052925050506116a9565b6116a484611cc3565b925050505b919050565b6116c8828260405180602001604052806000815250611d2c565b5050565b80600a600084815260200190815260200160002090816116ec9190613566565b507ff8e1a15aba9398e019f0b49df1a4fde98ee17ae345cb5f6b5e2c27f5033e8ce78260405161171c9190612ad6565b60405180910390a15050565b6117c0828260405160240161173e929190613638565b6040516020818303038152906040527f4b5c4277000000000000000000000000000000000000000000000000000000007bffffffffffffffffffffffffffffffffffffffffffffffffffffffff19166020820180517bffffffffffffffffffffffffffffffffffffffffffffffffffffffff8381831617835250505050611b75565b5050565b61185c82826040516024016117da92919061366f565b6040516020818303038152906040527f319af333000000000000000000000000000000000000000000000000000000007bffffffffffffffffffffffffffffffffffffffffffffffffffffffff19166020820180517bffffffffffffffffffffffffffffffffffffffffffffffffffffffff8381831617835250505050611b75565b5050565b6118f681604051602401611874919061297a565b6040516020818303038152906040527f41304fac000000000000000000000000000000000000000000000000000000007bffffffffffffffffffffffffffffffffffffffffffffffffffffffff19166020820180517bffffffffffffffffffffffffffffffffffffffffffffffffffffffff8381831617835250505050611b75565b50565b60007f780e9d63000000000000000000000000000000000000000000000000000000007bffffffffffffffffffffffffffffffffffffffffffffffffffffffff1916827bffffffffffffffffffffffffffffffffffffffffffffffffffffffff1916148061196c575061196b82611d50565b5b9050919050565b60006002600083815260200190815260200160002060009054906101000a900473ffffffffffffffffffffffffffffffffffffffff169050919050565b80806119e95750600073ffffffffffffffffffffffffffffffffffffffff168273ffffffffffffffffffffffffffffffffffffffff1614155b15611b1d5760006119f984610dcb565b9050600073ffffffffffffffffffffffffffffffffffffffff168373ffffffffffffffffffffffffffffffffffffffff1614158015611a6457508273ffffffffffffffffffffffffffffffffffffffff168173ffffffffffffffffffffffffffffffffffffffff1614155b8015611a775750611a758184610cd6565b155b15611ab957826040517fa9fbf51f000000000000000000000000000000000000000000000000000000008152600401611ab09190612a40565b60405180910390fd5b8115611b1b57838573ffffffffffffffffffffffffffffffffffffffff168273ffffffffffffffffffffffffffffffffffffffff167f8c5be1e5ebec7d5bd14f71427d1e84f3dd0314c0f7b2291e5b200ac8c7c3b92560405160405180910390a45b505b836004600085815260200190815260200160002060006101000a81548173ffffffffffffffffffffffffffffffffffffffff021916908373ffffffffffffffffffffffffffffffffffffffff16021790555050505050565b611b8c81611b84611e32611e53565b63ffffffff16565b50565b600080611b9d858585611e5e565b9050600073ffffffffffffffffffffffffffffffffffffffff168173ffffffffffffffffffffffffffffffffffffffff1603611be157611bdc84612078565b611c20565b8473ffffffffffffffffffffffffffffffffffffffff168173ffffffffffffffffffffffffffffffffffffffff1614611c1f57611c1e81856120c1565b5b5b600073ffffffffffffffffffffffffffffffffffffffff168573ffffffffffffffffffffffffffffffffffffffff1603611c6257611c5d846121ac565b611ca1565b8473ffffffffffffffffffffffffffffffffffffffff168173ffffffffffffffffffffffffffffffffffffffff1614611ca057611c9f858561227d565b5b5b809150509392505050565b606060405180602001604052806000815250905090565b6060611cce82610dcb565b506000611cd9611cac565b90506000815111611cf95760405180602001604052806000815250611d24565b80611d0384612308565b604051602001611d14929190613396565b6040516020818303038152906040525b915050919050565b611d3683836123d6565b611d4b611d41610e90565b60008585856113ea565b505050565b60007f80ac58cd000000000000000000000000000000000000000000000000000000007bffffffffffffffffffffffffffffffffffffffffffffffffffffffff1916827bffffffffffffffffffffffffffffffffffffffffffffffffffffffff19161480611e1b57507f5b5e139f000000000000000000000000000000000000000000000000000000007bffffffffffffffffffffffffffffffffffffffffffffffffffffffff1916827bffffffffffffffffffffffffffffffffffffffffffffffffffffffff1916145b80611e2b5750611e2a826124cf565b5b9050919050565b60006a636f6e736f6c652e6c6f679050600080835160208501845afa505050565b612811819050919050565b600080611e6a84611973565b9050600073ffffffffffffffffffffffffffffffffffffffff168373ffffffffffffffffffffffffffffffffffffffff1614611eac57611eab818486612539565b5b600073ffffffffffffffffffffffffffffffffffffffff168173ffffffffffffffffffffffffffffffffffffffff1614611f3d57611eee6000856000806119b0565b6001600360008373ffffffffffffffffffffffffffffffffffffffff1673ffffffffffffffffffffffffffffffffffffffff168152602001908152602001600020600082825403925050819055505b600073ffffffffffffffffffffffffffffffffffffffff168573ffffffffffffffffffffffffffffffffffffffff1614611fc0576001600360008773ffffffffffffffffffffffffffffffffffffffff1673ffffffffffffffffffffffffffffffffffffffff168152602001908152602001600020600082825401925050819055505b846002600086815260200190815260200160002060006101000a81548173ffffffffffffffffffffffffffffffffffffffff021916908373ffffffffffffffffffffffffffffffffffffffff160217905550838573ffffffffffffffffffffffffffffffffffffffff168273ffffffffffffffffffffffffffffffffffffffff167fddf252ad1be2c89b69c2b068fc378daa952ba7f163c4a11628f55a4df523b3ef60405160405180910390a4809150509392505050565b6008805490506009600083815260200190815260200160002081905550600881908060018154018082558091505060019003906000526020600020016000909190919091505550565b60006120cc836107ab565b90506000600760008481526020019081526020016000205490506000600660008673ffffffffffffffffffffffffffffffffffffffff1673ffffffffffffffffffffffffffffffffffffffff16815260200190815260200160002090508282146121785760008160008581526020019081526020016000205490508082600085815260200190815260200160002081905550826007600083815260200190815260200160002081905550505b6007600085815260200190815260200160002060009055806000848152602001908152602001600020600090555050505050565b600060016008805490506121c0919061369f565b90506000600960008481526020019081526020016000205490506000600883815481106121f0576121ef61313a565b5b9060005260206000200154905080600883815481106122125761221161313a565b5b906000526020600020018190555081600960008381526020019081526020016000208190555060096000858152602001908152602001600020600090556008805480612261576122606136d3565b5b6001900381819060005260206000200160009055905550505050565b6000600161228a846107ab565b612294919061369f565b905081600660008573ffffffffffffffffffffffffffffffffffffffff1673ffffffffffffffffffffffffffffffffffffffff168152602001908152602001600020600083815260200190815260200160002081905550806007600084815260200190815260200160002081905550505050565b606060006001612317846125fd565b01905060008167ffffffffffffffff81111561233657612335612d15565b5b6040519080825280601f01601f1916602001820160405280156123685781602001600182028036833780820191505090505b509050600082602001820190505b6001156123cb578080600190039150507f3031323334353637383961626364656600000000000000000000000000000000600a86061a8153600a85816123bf576123be613702565b5b04945060008503612376575b819350505050919050565b600073ffffffffffffffffffffffffffffffffffffffff168273ffffffffffffffffffffffffffffffffffffffff16036124485760006040517f64a0ae9200000000000000000000000000000000000000000000000000000000815260040161243f9190612a40565b60405180910390fd5b6000612456838360006110c0565b9050600073ffffffffffffffffffffffffffffffffffffffff168173ffffffffffffffffffffffffffffffffffffffff16146124ca5760006040517f73c6ac6e0000000000000000000000000000000000000000000000000000000081526004016124c19190612a40565b60405180910390fd5b505050565b60007f01ffc9a7000000000000000000000000000000000000000000000000000000007bffffffffffffffffffffffffffffffffffffffffffffffffffffffff1916827bffffffffffffffffffffffffffffffffffffffffffffffffffffffff1916149050919050565b612544838383612750565b6125f857600073ffffffffffffffffffffffffffffffffffffffff168373ffffffffffffffffffffffffffffffffffffffff16036125b957806040517f7e2732890000000000000000000000000000000000000000000000000000000081526004016125b09190612ad6565b60405180910390fd5b81816040517f177e802f0000000000000000000000000000000000000000000000000000000081526004016125ef92919061324e565b60405180910390fd5b505050565b600080600090507a184f03e93ff9f4daa797ed6e38ed64bf6a1f010000000000000000831061265b577a184f03e93ff9f4daa797ed6e38ed64bf6a1f010000000000000000838161265157612650613702565b5b0492506040810190505b6d04ee2d6d415b85acef81000000008310612698576d04ee2d6d415b85acef8100000000838161268e5761268d613702565b5b0492506020810190505b662386f26fc1000083106126c757662386f26fc1000083816126bd576126bc613702565b5b0492506010810190505b6305f5e10083106126f0576305f5e10083816126e6576126e5613702565b5b0492506008810190505b612710831061271557612710838161270b5761270a613702565b5b0492506004810190505b60648310612738576064838161272e5761272d613702565b5b0492506002810190505b600a8310612747576001810190505b80915050919050565b60008073ffffffffffffffffffffffffffffffffffffffff168373ffffffffffffffffffffffffffffffffffffffff161415801561280857508273ffffffffffffffffffffffffffffffffffffffff168473ffffffffffffffffffffffffffffffffffffffff1614806127c957506127c88484610cd6565b5b8061280757508273ffffffffffffffffffffffffffffffffffffffff166127ef83610e53565b73ffffffffffffffffffffffffffffffffffffffff16145b5b90509392505050565b612819613731565b565b6000604051905090565b600080fd5b600080fd5b60007fffffffff0000000000000000000000000000000000000000000000000000000082169050919050565b6128648161282f565b811461286f57600080fd5b50565b6000813590506128818161285b565b92915050565b60006020828403121561289d5761289c612825565b5b60006128ab84828501612872565b91505092915050565b60008115159050919050565b6128c9816128b4565b82525050565b60006020820190506128e460008301846128c0565b92915050565b600081519050919050565b600082825260208201905092915050565b60005b83811015612924578082015181840152602081019050612909565b60008484015250505050565b6000601f19601f8301169050919050565b600061294c826128ea565b61295681856128f5565b9350612966818560208601612906565b61296f81612930565b840191505092915050565b600060208201905081810360008301526129948184612941565b905092915050565b6000819050919050565b6129af8161299c565b81146129ba57600080fd5b50565b6000813590506129cc816129a6565b92915050565b6000602082840312156129e8576129e7612825565b5b60006129f6848285016129bd565b91505092915050565b600073ffffffffffffffffffffffffffffffffffffffff82169050919050565b6000612a2a826129ff565b9050919050565b612a3a81612a1f565b82525050565b6000602082019050612a556000830184612a31565b92915050565b612a6481612a1f565b8114612a6f57600080fd5b50565b600081359050612a8181612a5b565b92915050565b60008060408385031215612a9e57612a9d612825565b5b6000612aac85828601612a72565b9250506020612abd858286016129bd565b9150509250929050565b612ad08161299c565b82525050565b6000602082019050612aeb6000830184612ac7565b92915050565b600080600060608486031215612b0a57612b09612825565b5b6000612b1886828701612a72565b9350506020612b2986828701612a72565b9250506040612b3a868287016129bd565b9150509250925092565b600060208284031215612b5a57612b59612825565b5b6000612b6884828501612a72565b91505092915050565b600081519050919050565b600082825260208201905092915050565b6000819050602082019050919050565b600082825260208201905092915050565b6000612bb9826128ea565b612bc38185612b9d565b9350612bd3818560208601612906565b612bdc81612930565b840191505092915050565b6000612bf38383612bae565b905092915050565b6000602082019050919050565b6000612c1382612b71565b612c1d8185612b7c565b935083602082028501612c2f85612b8d565b8060005b85811015612c6b5784840389528151612c4c8582612be7565b9450612c5783612bfb565b925060208a01995050600181019050612c33565b50829750879550505050505092915050565b60006020820190508181036000830152612c978184612c08565b905092915050565b612ca8816128b4565b8114612cb357600080fd5b50565b600081359050612cc581612c9f565b92915050565b60008060408385031215612ce257612ce1612825565b5b6000612cf085828601612a72565b9250506020612d0185828601612cb6565b9150509250929050565b600080fd5b600080fd5b7f4e487b7100000000000000000000000000000000000000000000000000000000600052604160045260246000fd5b612d4d82612930565b810181811067ffffffffffffffff82111715612d6c57612d6b612d15565b5b80604052505050565b6000612d7f61281b565b9050612d8b8282612d44565b919050565b600067ffffffffffffffff821115612dab57612daa612d15565b5b612db482612930565b9050602081019050919050565b82818337600083830152505050565b6000612de3612dde84612d90565b612d75565b905082815260208101848484011115612dff57612dfe612d10565b5b612e0a848285612dc1565b509392505050565b600082601f830112612e2757612e26612d0b565b5b8135612e37848260208601612dd0565b91505092915050565b60008060008060808587031215612e5a57612e59612825565b5b6000612e6887828801612a72565b9450506020612e7987828801612a72565b9350506040612e8a878288016129bd565b925050606085013567ffffffffffffffff811115612eab57612eaa61282a565b5b612eb787828801612e12565b91505092959194509250565b600067ffffffffffffffff821115612ede57612edd612d15565b5b612ee782612930565b9050602081019050919050565b6000612f07612f0284612ec3565b612d75565b905082815260208101848484011115612f2357612f22612d10565b5b612f2e848285612dc1565b509392505050565b600082601f830112612f4b57612f4a612d0b565b5b8135612f5b848260208601612ef4565b91505092915050565b60008060408385031215612f7b57612f7a612825565b5b6000612f8985828601612a72565b925050602083013567ffffffffffffffff811115612faa57612fa961282a565b5b612fb685828601612f36565b9150509250929050565b60008060408385031215612fd757612fd6612825565b5b6000612fe585828601612a72565b9250506020612ff685828601612a72565b9150509250929050565b7f4e487b7100000000000000000000000000000000000000000000000000000000600052602260045260246000fd5b6000600282049050600182168061304757607f821691505b60208210810361305a57613059613000565b5b50919050565b7f546f6b656e20646f6573206e6f74206578697374000000000000000000000000600082015250565b60006130966014836128f5565b91506130a182613060565b602082019050919050565b600060208201905081810360008301526130c581613089565b9050919050565b60006060820190506130e16000830186612ac7565b6130ee6020830185612a31565b6130fb6040830184612a31565b949350505050565b60006060820190506131186000830186612a31565b6131256020830185612ac7565b6131326040830184612a31565b949350505050565b7f4e487b7100000000000000000000000000000000000000000000000000000000600052603260045260246000fd5b7f4e487b7100000000000000000000000000000000000000000000000000000000600052601160045260246000fd5b60006131a38261299c565b91507fffffffffffffffffffffffffffffffffffffffffffffffffffffffffffffffff82036131d5576131d4613169565b5b600182019050919050565b60006060820190506131f56000830186612ac7565b6132026020830185612a31565b81810360408301526132148184612941565b9050949350505050565b600060408201905081810360008301526132388185612941565b90506132476020830184612ac7565b9392505050565b60006040820190506132636000830185612a31565b6132706020830184612ac7565b9392505050565b600081519050919050565b600082825260208201905092915050565b600061329e82613277565b6132a88185613282565b93506132b8818560208601612906565b6132c181612930565b840191505092915050565b60006080820190506132e16000830187612a31565b6132ee6020830186612a31565b6132fb6040830185612ac7565b818103606083015261330d8184613293565b905095945050505050565b6000815190506133278161285b565b92915050565b60006020828403121561334357613342612825565b5b600061335184828501613318565b91505092915050565b600081905092915050565b6000613370826128ea565b61337a818561335a565b935061338a818560208601612906565b80840191505092915050565b60006133a28285613365565b91506133ae8284613365565b91508190509392505050565b60008190508160005260206000209050919050565b60006020601f8301049050919050565b600082821b905092915050565b60006008830261341c7fffffffffffffffffffffffffffffffffffffffffffffffffffffffffffffffff826133df565b61342686836133df565b95508019841693508086168417925050509392505050565b6000819050919050565b600061346361345e6134598461299c565b61343e565b61299c565b9050919050565b6000819050919050565b61347d83613448565b6134916134898261346a565b8484546133ec565b825550505050565b600090565b6134a6613499565b6134b1818484613474565b505050565b5b818110156134d5576134ca60008261349e565b6001810190506134b7565b5050565b601f82111561351a576134eb816133ba565b6134f4846133cf565b81016020851015613503578190505b61351761350f856133cf565b8301826134b6565b50505b505050565b600082821c905092915050565b600061353d6000198460080261351f565b1980831691505092915050565b6000613556838361352c565b9150826002028217905092915050565b61356f826128ea565b67ffffffffffffffff81111561358857613587612d15565b5b613592825461302f565b61359d8282856134d9565b600060209050601f8311600181146135d057600084156135be578287015190505b6135c8858261354a565b865550613630565b601f1984166135de866133ba565b60005b82811015613606578489015182556001820191506020850194506020810190506135e1565b86831015613623578489015161361f601f89168261352c565b8355505b6001600288020188555050505b505050505050565b600060408201905081810360008301526136528185612941565b905081810360208301526136668184612941565b90509392505050565b600060408201905081810360008301526136898185612941565b90506136986020830184612a31565b9392505050565b60006136aa8261299c565b91506136b58361299c565b92508282039050818111156136cd576136cc613169565b5b92915050565b7f4e487b7100000000000000000000000000000000000000000000000000000000600052603160045260246000fd5b7f4e487b7100000000000000000000000000000000000000000000000000000000600052601260045260246000fd5b7f4e487b7100000000000000000000000000000000000000000000000000000000600052605160045260246000fdfea2646970667358221220b80d8f201fca78ca43ce6ebf9eebe3cfcb0fb13abb171cf9a68ed2df322e363364736f6c634300081c0033",
  "linkReferences": {},
  "deployedLinkReferences": {}
}