{
  "_format": "hh-sol-artifact-1",
  "contractName": "DataToken",
  "sourceName": "contracts/DataToken.sol",
  "abi": [
    {
      "inputs": [],
      "stateMutability": "nonpayable",
      "type": "constructor"
    },
    {
      "inputs": [
        {
          "internalType": "address",
          "name": "sender",
          "type": "address"
        },
        {
          "internalType": "uint256",
          "name": "tokenId",
          "type": "uint256"
        },
        {
          "internalType": "address",
          "name": "owner",
          "type": "address"
        }
      ],
      "name": "ERC721IncorrectOwner",
      "type": "error"
    },
    {
      "inputs": [
        {
          "internalType": "address",
          "name": "operator",
          "type": "address"
        },
        {
          "internalType": "uint256",
          "name": "tokenId",
          "type": "uint256"
        }
      ],
      "name": "ERC721InsufficientApproval",
      "type": "error"
    },
    {
      "inputs": [
        {
          "internalType": "address",
          "name": "approver",
          "type": "address"
        }
      ],
      "name": "ERC721InvalidApprover",
      "type": "error"
    },
    {
      "inputs": [
        {
          "internalType": "address",
          "name": "operator",
          "type": "address"
        }
      ],
      "name": "ERC721InvalidOperator",
      "type": "error"
    },
    {
      "inputs": [
        {
          "internalType": "address",
          "name": "owner",
          "type": "address"
        }
      ],
      "name": "ERC721InvalidOwner",
      "type": "error"
    },
    {
      "inputs": [
        {
          "internalType": "address",
          "name": "receiver",
          "type": "address"
        }
      ],
      "name": "ERC721InvalidReceiver",
      "type": "error"
    },
    {
      "inputs": [
        {
          "internalType": "address",
          "name": "sender",
          "type": "address"
        }
      ],
      "name": "ERC721InvalidSender",
      "type": "error"
    },
    {
      "inputs": [
        {
          "internalType": "uint256",
          "name": "tokenId",
          "type": "uint256"
        }
      ],
      "name": "ERC721NonexistentToken",
      "type": "error"
    },
    {
      "anonymous": false,
      "inputs": [
        {
          "indexed": true,
          "internalType": "address",
          "name": "owner",
          "type": "address"
        },
        {
          "indexed": true,
          "internalType": "address",
          "name": "approved",
          "type": "address"
        },
        {
          "indexed": true,
          "internalType": "uint256",
          "name": "tokenId",
          "type": "uint256"
        }
      ],
      "name": "Approval",
      "type": "event"
    },
    {
      "anonymous": false,
      "inputs": [
        {
          "indexed": true,
          "internalType": "address",
          "name": "owner",
          "type": "address"
        },
        {
          "indexed": true,
          "internalType": "address",
          "name": "operator",
          "type": "address"
        },
        {
          "indexed": false,
          "internalType": "bool",
          "name": "approved",
          "type": "bool"
        }
      ],
      "name": "ApprovalForAll",
      "type": "event"
    },
    {
      "anonymous": false,
      "inputs": [
        {
          "indexed": false,
          "internalType": "uint256",
          "name": "_fromTokenId",
          "type": "uint256"
        },
        {
          "indexed": false,
          "internalType": "uint256",
          "name": "_toTokenId",
          "type": "uint256"
        }
      ],
      "name": "BatchMetadataUpdate",
      "type": "event"
    },
    {
      "anonymous": false,
      "inputs": [
        {
          "indexed": false,
          "internalType": "uint256",
          "name": "_tokenId",
          "type": "uint256"
        }
      ],
      "name": "MetadataUpdate",
      "type": "event"
    },
    {
      "anonymous": false,
      "inputs": [
        {
          "indexed": false,
          "internalType": "uint256",
          "name": "tokenId",
          "type": "uint256"
        }
      ],
      "name": "TokenBurned",
      "type": "event"
    },
    {
      "anonymous": false,
      "inputs": [
        {
          "indexed": false,
          "internalType": "uint256",
          "name": "tokenId",
          "type": "uint256"
        },
        {
          "indexed": false,
          "internalType": "address",
          "name": "to",
          "type": "address"
        },
        {
          "indexed": false,
          "internalType": "string",
          "name": "uri",
          "type": "string"
        }
      ],
      "name": "TokenMinted",
      "type": "event"
    },
    {
      "anonymous": false,
      "inputs": [
        {
          "indexed": false,
          "internalType": "uint256",
          "name": "tokenId",
          "type": "uint256"
        },
        {
          "indexed": false,
          "internalType": "address",
          "name": "to",
          "type": "address"
        },
        {
          "indexed": false,
          "internalType": "address",
          "name": "from",
          "type": "address"
        }
      ],
      "name": "TokenTransferred",
      "type": "event"
    },
    {
      "anonymous": false,
      "inputs": [
        {
          "indexed": true,
          "internalType": "address",
          "name": "from",
          "type": "address"
        },
        {
          "indexed": true,
          "internalType": "address",
          "name": "to",
          "type": "address"
        },
        {
          "indexed": true,
          "internalType": "uint256",
          "name": "tokenId",
          "type": "uint256"
        }
      ],
      "name": "Transfer",
      "type": "event"
    },
    {
      "inputs": [
        {
          "internalType": "address",
          "name": "to",
          "type": "address"
        },
        {
          "internalType": "uint256",
          "name": "tokenId",
          "type": "uint256"
        }
      ],
      "name": "approve",
      "outputs": [],
      "stateMutability": "nonpayable",
      "type": "function"
    },
    {
      "inputs": [
        {
          "internalType": "address",
          "name": "owner",
          "type": "address"
        }
      ],
      "name": "balanceOf",
      "outputs": [
        {
          "internalType": "uint256",
          "name": "",
          "type": "uint256"
        }
      ],
      "stateMutability": "view",
      "type": "function"
    },
    {
      "inputs": [
        {
          "internalType": "uint256",
          "name": "tokenId",
          "type": "uint256"
        }
      ],
      "name": "burn",
      "outputs": [],
      "stateMutability": "nonpayable",
      "type": "function"
    },
    {
      "inputs": [
        {
          "internalType": "uint256",
          "name": "tokenId",
          "type": "uint256"
        }
      ],
      "name": "burnToken",
      "outputs": [],
      "stateMutability": "nonpayable",
      "type": "function"
    },
    {
      "inputs": [
        {
          "internalType": "uint256",
          "name": "tokenId",
          "type": "uint256"
        }
      ],
      "name": "getApproved",
      "outputs": [
        {
          "internalType": "address",
          "name": "",
          "type": "address"
        }
      ],
      "stateMutability": "view",
      "type": "function"
    },
    {
      "inputs": [
        {
          "internalType": "address",
          "name": "owner",
          "type": "address"
        },
        {
          "internalType": "address",
          "name": "operator",
          "type": "address"
        }
      ],
      "name": "isApprovedForAll",
      "outputs": [
        {
          "internalType": "bool",
          "name": "",
          "type": "bool"
        }
      ],
      "stateMutability": "view",
      "type": "function"
    },
    {
      "inputs": [
        {
          "internalType": "address",
          "name": "to",
          "type": "address"
        },
        {
          "internalType": "string",
          "name": "uri",
          "type": "string"
        }
      ],
      "name": "mint",
      "outputs": [
        {
          "internalType": "uint256",
          "name": "",
          "type": "uint256"
        }
      ],
      "stateMutability": "nonpayable",
      "type": "function"
    },
    {
      "inputs": [],
      "name": "name",
      "outputs": [
        {
          "internalType": "string",
          "name": "",
          "type": "string"
        }
      ],
      "stateMutability": "view",
      "type": "function"
    },
    {
      "inputs": [
        {
          "internalType": "uint256",
          "name": "tokenId",
          "type": "uint256"
        }
      ],
      "name": "ownerOf",
      "outputs": [
        {
          "internalType": "address",
          "name": "",
          "type": "address"
        }
      ],
      "stateMutability": "view",
      "type": "function"
    },
    {
      "inputs": [
        {
          "internalType": "address",
          "name": "from",
          "type": "address"
        },
        {
          "internalType": "address",
          "name": "to",
          "type": "address"
        },
        {
          "internalType": "uint256",
          "name": "tokenId",
          "type": "uint256"
        }
      ],
      "name": "safeTransferFrom",
      "outputs": [],
      "stateMutability": "nonpayable",
      "type": "function"
    },
    {
      "inputs": [
        {
          "internalType": "address",
          "name": "from",
          "type": "address"
        },
        {
          "internalType": "address",
          "name": "to",
          "type": "address"
        },
        {
          "internalType": "uint256",
          "name": "tokenId",
          "type": "uint256"
        },
        {
          "internalType": "bytes",
          "name": "data",
          "type": "bytes"
        }
      ],
      "name": "safeTransferFrom",
      "outputs": [],
      "stateMutability": "nonpayable",
      "type": "function"
    },
    {
      "inputs": [
        {
          "internalType": "address",
          "name": "operator",
          "type": "address"
        },
        {
          "internalType": "bool",
          "name": "approved",
          "type": "bool"
        }
      ],
      "name": "setApprovalForAll",
      "outputs": [],
      "stateMutability": "nonpayable",
      "type": "function"
    },
    {
      "inputs": [
        {
          "internalType": "bytes4",
          "name": "interfaceId",
          "type": "bytes4"
        }
      ],
      "name": "supportsInterface",
      "outputs": [
        {
          "internalType": "bool",
          "name": "",
          "type": "bool"
        }
      ],
      "stateMutability": "view",
      "type": "function"
    },
    {
      "inputs": [],
      "name": "symbol",
      "outputs": [
        {
          "internalType": "string",
          "name": "",
          "type": "string"
        }
      ],
      "stateMutability": "view",
      "type": "function"
    },
    {
      "inputs": [
        {
          "internalType": "uint256",
          "name": "tokenId",
          "type": "uint256"
        }
      ],
      "name": "tokenURI",
      "outputs": [
        {
          "internalType": "string",
          "name": "",
          "type": "string"
        }
      ],
      "stateMutability": "view",
      "type": "function"
    },
    {
      "inputs": [
        {
          "internalType": "address",
          "name": "from",
          "type": "address"
        },
        {
          "internalType": "address",
          "name": "to",
          "type": "address"
        },
        {
          "internalType": "uint256",
          "name": "tokenId",
          "type": "uint256"
        }
      ],
      "name": "transferFrom",
      "outputs": [],
      "stateMutability": "nonpayable",
      "type": "function"
    }
  ],
  "bytecode": "0x608060405234801561001057600080fd5b506040518060400160405280600981526020017f44617461546f6b656e00000000000000000000000000000000000000000000008152506040518060400160405280600381526020017f44544b0000000000000000000000000000000000000000000000000000000000815250816000908161008c91906102f4565b50806001908161009c91906102f4565b5050506103c6565b600081519050919050565b7f4e487b7100000000000000000000000000000000000000000000000000000000600052604160045260246000fd5b7f4e487b7100000000000000000000000000000000000000000000000000000000600052602260045260246000fd5b6000600282049050600182168061012557607f821691505b602082108103610138576101376100de565b5b50919050565b60008190508160005260206000209050919050565b60006020601f8301049050919050565b600082821b905092915050565b6000600883026101a07fffffffffffffffffffffffffffffffffffffffffffffffffffffffffffffffff82610163565b6101aa8683610163565b95508019841693508086168417925050509392505050565b6000819050919050565b6000819050919050565b60006101f16101ec6101e7846101c2565b6101cc565b6101c2565b9050919050565b6000819050919050565b61020b836101d6565b61021f610217826101f8565b848454610170565b825550505050565b600090565b610234610227565b61023f818484610202565b505050565b5b818110156102635761025860008261022c565b600181019050610245565b5050565b601f8211156102a8576102798161013e565b61028284610153565b81016020851015610291578190505b6102a561029d85610153565b830182610244565b50505b505050565b600082821c905092915050565b60006102cb600019846008026102ad565b1980831691505092915050565b60006102e483836102ba565b9150826002028217905092915050565b6102fd826100a4565b67ffffffffffffffff811115610316576103156100af565b5b610320825461010d565b61032b828285610267565b600060209050601f83116001811461035e576000841561034c578287015190505b61035685826102d8565b8655506103be565b601f19841661036c8661013e565b60005b828110156103945784890151825560018201915060208501945060208101905061036f565b868310156103b157848901516103ad601f8916826102ba565b8355505b6001600288020188555050505b505050505050565b612c06806103d56000396000f3fe608060405234801561001057600080fd5b50600436106101005760003560e01c806370a0823111610097578063b88d4fde11610066578063b88d4fde146102a9578063c87b56dd146102c5578063d0def521146102f5578063e985e9c51461032557610100565b806370a08231146102235780637b47ec1a1461025357806395d89b411461026f578063a22cb4651461028d57610100565b806323b872dd116100d357806323b872dd1461019f57806342842e0e146101bb57806342966c68146101d75780636352211e146101f357610100565b806301ffc9a71461010557806306fdde0314610135578063081812fc14610153578063095ea7b314610183575b600080fd5b61011f600480360381019061011a9190611eee565b610355565b60405161012c9190611f36565b60405180910390f35b61013d610367565b60405161014a9190611fe1565b60405180910390f35b61016d60048036038101906101689190612039565b6103f9565b60405161017a91906120a7565b60405180910390f35b61019d600480360381019061019891906120ee565b610415565b005b6101b960048036038101906101b4919061212e565b61042b565b005b6101d560048036038101906101d0919061212e565b61052d565b005b6101f160048036038101906101ec9190612039565b61054d565b005b61020d60048036038101906102089190612039565b610564565b60405161021a91906120a7565b60405180910390f35b61023d60048036038101906102389190612181565b610576565b60405161024a91906121bd565b60405180910390f35b61026d60048036038101906102689190612039565b610630565b005b610277610728565b6040516102849190611fe1565b60405180910390f35b6102a760048036038101906102a29190612204565b6107ba565b005b6102c360048036038101906102be9190612379565b6107d0565b005b6102df60048036038101906102da9190612039565b6107f5565b6040516102ec9190611fe1565b60405180910390f35b61030f600480360381019061030a919061249d565b61087d565b60405161031c91906121bd565b60405180910390f35b61033f600480360381019061033a91906124f9565b6109ed565b60405161034c9190611f36565b60405180910390f35b600061036082610a81565b9050919050565b60606000805461037690612568565b80601f01602080910402602001604051908101604052809291908181526020018280546103a290612568565b80156103ef5780601f106103c4576101008083540402835291602001916103ef565b820191906000526020600020905b8154815290600101906020018083116103d257829003601f168201915b5050505050905090565b600061040482610ae2565b5061040e82610b6a565b9050919050565b6104278282610422610ba7565b610baf565b5050565b600073ffffffffffffffffffffffffffffffffffffffff168273ffffffffffffffffffffffffffffffffffffffff160361049d5760006040517f64a0ae9200000000000000000000000000000000000000000000000000000000815260040161049491906120a7565b60405180910390fd5b60006104b183836104ac610ba7565b610bc1565b90508373ffffffffffffffffffffffffffffffffffffffff168173ffffffffffffffffffffffffffffffffffffffff1614610527578382826040517f64283d7b00000000000000000000000000000000000000000000000000000000815260040161051e93929190612599565b60405180910390fd5b50505050565b610548838383604051806020016040528060008152506107d0565b505050565b61056060008261055b610ba7565b610bc1565b5050565b600061056f82610ae2565b9050919050565b60008073ffffffffffffffffffffffffffffffffffffffff168273ffffffffffffffffffffffffffffffffffffffff16036105e95760006040517f89c62b640000000000000000000000000000000000000000000000000000000081526004016105e091906120a7565b60405180910390fd5b600360008373ffffffffffffffffffffffffffffffffffffffff1673ffffffffffffffffffffffffffffffffffffffff168152602001908152602001600020549050919050565b3373ffffffffffffffffffffffffffffffffffffffff1661065082610564565b73ffffffffffffffffffffffffffffffffffffffff16146106a6576040517f08c379a000000000000000000000000000000000000000000000000000000000815260040161069d9061261c565b60405180910390fd5b6106af81610ddb565b6106ee6040518060400160405280601981526020017f4275726e696e6720746f6b656e20776974682049443a2025730000000000000081525082610e61565b7f0c526103b8f47af5516191d0c89a598755bd00faa211a3cb52e4c2cc782f7fe28160405161071d91906121bd565b60405180910390a150565b60606001805461073790612568565b80601f016020809104026020016040519081016040528092919081815260200182805461076390612568565b80156107b05780601f10610785576101008083540402835291602001916107b0565b820191906000526020600020905b81548152906001019060200180831161079357829003601f168201915b5050505050905090565b6107cc6107c5610ba7565b8383610efd565b5050565b6107db84848461042b565b6107ef6107e6610ba7565b8585858561106c565b50505050565b60603373ffffffffffffffffffffffffffffffffffffffff1661081783610564565b73ffffffffffffffffffffffffffffffffffffffff161461086d576040517f08c379a00000000000000000000000000000000000000000000000000000000081526004016108649061261c565b60405180910390fd5b6108768261121d565b9050919050565b600080600760008154809291906108939061266b565b9190505590506108a38482611330565b6108ad818461134e565b6108ec6040518060400160405280601981526020017f4d696e74696e6720746f6b656e20776974682049443a2025730000000000000081525082610e61565b61092b6040518060400160405280601a81526020017f4d696e74696e6720746f6b656e2077697468205552493a202573000000000000815250846113aa565b61096a6040518060400160405280601c81526020017f4d696e74696e6720746f6b656e20746f20616464726573733a2025730000000081525085611446565b7fec2cd236ed6d37bf5a71276ac93889db12834493a090efd543a3d2eca8dcdcc881858560405161099d939291906126b3565b60405180910390a16109e36040518060400160405280601981526020017f546f6b656e206d696e746564207375636365737366756c6c79000000000000008152506114e2565b8091505092915050565b6000600560008473ffffffffffffffffffffffffffffffffffffffff1673ffffffffffffffffffffffffffffffffffffffff16815260200190815260200160002060008373ffffffffffffffffffffffffffffffffffffffff1673ffffffffffffffffffffffffffffffffffffffff16815260200190815260200160002060009054906101000a900460ff16905092915050565b6000634906490660e01b7bffffffffffffffffffffffffffffffffffffffffffffffffffffffff1916827bffffffffffffffffffffffffffffffffffffffffffffffffffffffff19161480610adb5750610ada8261157b565b5b9050919050565b600080610aee8361165d565b9050600073ffffffffffffffffffffffffffffffffffffffff168173ffffffffffffffffffffffffffffffffffffffff1603610b6157826040517f7e273289000000000000000000000000000000000000000000000000000000008152600401610b5891906121bd565b60405180910390fd5b80915050919050565b60006004600083815260200190815260200160002060009054906101000a900473ffffffffffffffffffffffffffffffffffffffff169050919050565b600033905090565b610bbc838383600161169a565b505050565b600080610bcd8461165d565b9050600073ffffffffffffffffffffffffffffffffffffffff168373ffffffffffffffffffffffffffffffffffffffff1614610c0f57610c0e81848661185f565b5b600073ffffffffffffffffffffffffffffffffffffffff168173ffffffffffffffffffffffffffffffffffffffff1614610ca057610c5160008560008061169a565b6001600360008373ffffffffffffffffffffffffffffffffffffffff1673ffffffffffffffffffffffffffffffffffffffff168152602001908152602001600020600082825403925050819055505b600073ffffffffffffffffffffffffffffffffffffffff168573ffffffffffffffffffffffffffffffffffffffff1614610d23576001600360008773ffffffffffffffffffffffffffffffffffffffff1673ffffffffffffffffffffffffffffffffffffffff168152602001908152602001600020600082825401925050819055505b846002600086815260200190815260200160002060006101000a81548173ffffffffffffffffffffffffffffffffffffffff021916908373ffffffffffffffffffffffffffffffffffffffff160217905550838573ffffffffffffffffffffffffffffffffffffffff168273ffffffffffffffffffffffffffffffffffffffff167fddf252ad1be2c89b69c2b068fc378daa952ba7f163c4a11628f55a4df523b3ef60405160405180910390a4809150509392505050565b6000610dea6000836000610bc1565b9050600073ffffffffffffffffffffffffffffffffffffffff168173ffffffffffffffffffffffffffffffffffffffff1603610e5d57816040517f7e273289000000000000000000000000000000000000000000000000000000008152600401610e5491906121bd565b60405180910390fd5b5050565b610ef98282604051602401610e779291906126f1565b6040516020818303038152906040527fb60e72cc000000000000000000000000000000000000000000000000000000007bffffffffffffffffffffffffffffffffffffffffffffffffffffffff19166020820180517bffffffffffffffffffffffffffffffffffffffffffffffffffffffff8381831617835250505050611923565b5050565b600073ffffffffffffffffffffffffffffffffffffffff168273ffffffffffffffffffffffffffffffffffffffff1603610f6e57816040517f5b08ba18000000000000000000000000000000000000000000000000000000008152600401610f6591906120a7565b60405180910390fd5b80600560008573ffffffffffffffffffffffffffffffffffffffff1673ffffffffffffffffffffffffffffffffffffffff16815260200190815260200160002060008473ffffffffffffffffffffffffffffffffffffffff1673ffffffffffffffffffffffffffffffffffffffff16815260200190815260200160002060006101000a81548160ff0219169083151502179055508173ffffffffffffffffffffffffffffffffffffffff168373ffffffffffffffffffffffffffffffffffffffff167f17307eab39ab6107e8899845ad3d59bd9653f200f220920489ca2b5937696c318360405161105f9190611f36565b60405180910390a3505050565b60008373ffffffffffffffffffffffffffffffffffffffff163b1115611216578273ffffffffffffffffffffffffffffffffffffffff1663150b7a02868685856040518563ffffffff1660e01b81526004016110cb9493929190612776565b6020604051808303816000875af192505050801561110757506040513d601f19601f8201168201806040525081019061110491906127d7565b60015b61118b573d8060008114611137576040519150601f19603f3d011682016040523d82523d6000602084013e61113c565b606091505b50600081510361118357836040517f64a0ae9200000000000000000000000000000000000000000000000000000000815260040161117a91906120a7565b60405180910390fd5b805181602001fd5b63150b7a0260e01b7bffffffffffffffffffffffffffffffffffffffffffffffffffffffff1916817bffffffffffffffffffffffffffffffffffffffffffffffffffffffff19161461121457836040517f64a0ae9200000000000000000000000000000000000000000000000000000000815260040161120b91906120a7565b60405180910390fd5b505b5050505050565b606061122882610ae2565b50600060066000848152602001908152602001600020805461124990612568565b80601f016020809104026020016040519081016040528092919081815260200182805461127590612568565b80156112c25780601f10611297576101008083540402835291602001916112c2565b820191906000526020600020905b8154815290600101906020018083116112a557829003601f168201915b5050505050905060006112d361193d565b905060008151036112e857819250505061132b565b60008251111561131d578082604051602001611305929190612840565b6040516020818303038152906040529250505061132b565b6113268461197a565b925050505b919050565b61134a8282604051806020016040528060008152506119e3565b5050565b8060066000848152602001908152602001600020908161136e9190612a10565b507ff8e1a15aba9398e019f0b49df1a4fde98ee17ae345cb5f6b5e2c27f5033e8ce78260405161139e91906121bd565b60405180910390a15050565b61144282826040516024016113c0929190612ae2565b6040516020818303038152906040527f4b5c4277000000000000000000000000000000000000000000000000000000007bffffffffffffffffffffffffffffffffffffffffffffffffffffffff19166020820180517bffffffffffffffffffffffffffffffffffffffffffffffffffffffff8381831617835250505050611923565b5050565b6114de828260405160240161145c929190612b19565b6040516020818303038152906040527f319af333000000000000000000000000000000000000000000000000000000007bffffffffffffffffffffffffffffffffffffffffffffffffffffffff19166020820180517bffffffffffffffffffffffffffffffffffffffffffffffffffffffff8381831617835250505050611923565b5050565b611578816040516024016114f69190611fe1565b6040516020818303038152906040527f41304fac000000000000000000000000000000000000000000000000000000007bffffffffffffffffffffffffffffffffffffffffffffffffffffffff19166020820180517bffffffffffffffffffffffffffffffffffffffffffffffffffffffff8381831617835250505050611923565b50565b60007f80ac58cd000000000000000000000000000000000000000000000000000000007bffffffffffffffffffffffffffffffffffffffffffffffffffffffff1916827bffffffffffffffffffffffffffffffffffffffffffffffffffffffff1916148061164657507f5b5e139f000000000000000000000000000000000000000000000000000000007bffffffffffffffffffffffffffffffffffffffffffffffffffffffff1916827bffffffffffffffffffffffffffffffffffffffffffffffffffffffff1916145b80611656575061165582611a07565b5b9050919050565b60006002600083815260200190815260200160002060009054906101000a900473ffffffffffffffffffffffffffffffffffffffff169050919050565b80806116d35750600073ffffffffffffffffffffffffffffffffffffffff168273ffffffffffffffffffffffffffffffffffffffff1614155b156118075760006116e384610ae2565b9050600073ffffffffffffffffffffffffffffffffffffffff168373ffffffffffffffffffffffffffffffffffffffff161415801561174e57508273ffffffffffffffffffffffffffffffffffffffff168173ffffffffffffffffffffffffffffffffffffffff1614155b8015611761575061175f81846109ed565b155b156117a357826040517fa9fbf51f00000000000000000000000000000000000000000000000000000000815260040161179a91906120a7565b60405180910390fd5b811561180557838573ffffffffffffffffffffffffffffffffffffffff168273ffffffffffffffffffffffffffffffffffffffff167f8c5be1e5ebec7d5bd14f71427d1e84f3dd0314c0f7b2291e5b200ac8c7c3b92560405160405180910390a45b505b836004600085815260200190815260200160002060006101000a81548173ffffffffffffffffffffffffffffffffffffffff021916908373ffffffffffffffffffffffffffffffffffffffff16021790555050505050565b61186a838383611a71565b61191e57600073ffffffffffffffffffffffffffffffffffffffff168373ffffffffffffffffffffffffffffffffffffffff16036118df57806040517f7e2732890000000000000000000000000000000000000000000000000000000081526004016118d691906121bd565b60405180910390fd5b81816040517f177e802f000000000000000000000000000000000000000000000000000000008152600401611915929190612b49565b60405180910390fd5b505050565b61193a81611932611b32611b53565b63ffffffff16565b50565b60606040518060400160405280601b81526020017f687474703a2f2f3132372e302e302e313a383038302f697066732f0000000000815250905090565b606061198582610ae2565b50600061199061193d565b905060008151116119b057604051806020016040528060008152506119db565b806119ba84611b5e565b6040516020016119cb929190612840565b6040516020818303038152906040525b915050919050565b6119ed8383611c2c565b611a026119f8610ba7565b600085858561106c565b505050565b60007f01ffc9a7000000000000000000000000000000000000000000000000000000007bffffffffffffffffffffffffffffffffffffffffffffffffffffffff1916827bffffffffffffffffffffffffffffffffffffffffffffffffffffffff1916149050919050565b60008073ffffffffffffffffffffffffffffffffffffffff168373ffffffffffffffffffffffffffffffffffffffff1614158015611b2957508273ffffffffffffffffffffffffffffffffffffffff168473ffffffffffffffffffffffffffffffffffffffff161480611aea5750611ae984846109ed565b5b80611b2857508273ffffffffffffffffffffffffffffffffffffffff16611b1083610b6a565b73ffffffffffffffffffffffffffffffffffffffff16145b5b90509392505050565b60006a636f6e736f6c652e6c6f679050600080835160208501845afa505050565b611e78819050919050565b606060006001611b6d84611d25565b01905060008167ffffffffffffffff811115611b8c57611b8b61224e565b5b6040519080825280601f01601f191660200182016040528015611bbe5781602001600182028036833780820191505090505b509050600082602001820190505b600115611c21578080600190039150507f3031323334353637383961626364656600000000000000000000000000000000600a86061a8153600a8581611c1557611c14612b72565b5b04945060008503611bcc575b819350505050919050565b600073ffffffffffffffffffffffffffffffffffffffff168273ffffffffffffffffffffffffffffffffffffffff1603611c9e5760006040517f64a0ae92000000000000000000000000000000000000000000000000000000008152600401611c9591906120a7565b60405180910390fd5b6000611cac83836000610bc1565b9050600073ffffffffffffffffffffffffffffffffffffffff168173ffffffffffffffffffffffffffffffffffffffff1614611d205760006040517f73c6ac6e000000000000000000000000000000000000000000000000000000008152600401611d1791906120a7565b60405180910390fd5b505050565b600080600090507a184f03e93ff9f4daa797ed6e38ed64bf6a1f0100000000000000008310611d83577a184f03e93ff9f4daa797ed6e38ed64bf6a1f0100000000000000008381611d7957611d78612b72565b5b0492506040810190505b6d04ee2d6d415b85acef81000000008310611dc0576d04ee2d6d415b85acef81000000008381611db657611db5612b72565b5b0492506020810190505b662386f26fc100008310611def57662386f26fc100008381611de557611de4612b72565b5b0492506010810190505b6305f5e1008310611e18576305f5e1008381611e0e57611e0d612b72565b5b0492506008810190505b6127108310611e3d576127108381611e3357611e32612b72565b5b0492506004810190505b60648310611e605760648381611e5657611e55612b72565b5b0492506002810190505b600a8310611e6f576001810190505b80915050919050565b611e80612ba1565b565b6000604051905090565b600080fd5b600080fd5b60007fffffffff0000000000000000000000000000000000000000000000000000000082169050919050565b611ecb81611e96565b8114611ed657600080fd5b50565b600081359050611ee881611ec2565b92915050565b600060208284031215611f0457611f03611e8c565b5b6000611f1284828501611ed9565b91505092915050565b60008115159050919050565b611f3081611f1b565b82525050565b6000602082019050611f4b6000830184611f27565b92915050565b600081519050919050565b600082825260208201905092915050565b60005b83811015611f8b578082015181840152602081019050611f70565b60008484015250505050565b6000601f19601f8301169050919050565b6000611fb382611f51565b611fbd8185611f5c565b9350611fcd818560208601611f6d565b611fd681611f97565b840191505092915050565b60006020820190508181036000830152611ffb8184611fa8565b905092915050565b6000819050919050565b61201681612003565b811461202157600080fd5b50565b6000813590506120338161200d565b92915050565b60006020828403121561204f5761204e611e8c565b5b600061205d84828501612024565b91505092915050565b600073ffffffffffffffffffffffffffffffffffffffff82169050919050565b600061209182612066565b9050919050565b6120a181612086565b82525050565b60006020820190506120bc6000830184612098565b92915050565b6120cb81612086565b81146120d657600080fd5b50565b6000813590506120e8816120c2565b92915050565b6000806040838503121561210557612104611e8c565b5b6000612113858286016120d9565b925050602061212485828601612024565b9150509250929050565b60008060006060848603121561214757612146611e8c565b5b6000612155868287016120d9565b9350506020612166868287016120d9565b925050604061217786828701612024565b9150509250925092565b60006020828403121561219757612196611e8c565b5b60006121a5848285016120d9565b91505092915050565b6121b781612003565b82525050565b60006020820190506121d260008301846121ae565b92915050565b6121e181611f1b565b81146121ec57600080fd5b50565b6000813590506121fe816121d8565b92915050565b6000806040838503121561221b5761221a611e8c565b5b6000612229858286016120d9565b925050602061223a858286016121ef565b9150509250929050565b600080fd5b600080fd5b7f4e487b7100000000000000000000000000000000000000000000000000000000600052604160045260246000fd5b61228682611f97565b810181811067ffffffffffffffff821117156122a5576122a461224e565b5b80604052505050565b60006122b8611e82565b90506122c4828261227d565b919050565b600067ffffffffffffffff8211156122e4576122e361224e565b5b6122ed82611f97565b9050602081019050919050565b82818337600083830152505050565b600061231c612317846122c9565b6122ae565b90508281526020810184848401111561233857612337612249565b5b6123438482856122fa565b509392505050565b600082601f8301126123605761235f612244565b5b8135612370848260208601612309565b91505092915050565b6000806000806080858703121561239357612392611e8c565b5b60006123a1878288016120d9565b94505060206123b2878288016120d9565b93505060406123c387828801612024565b925050606085013567ffffffffffffffff8111156123e4576123e3611e91565b5b6123f08782880161234b565b91505092959194509250565b600067ffffffffffffffff8211156124175761241661224e565b5b61242082611f97565b9050602081019050919050565b600061244061243b846123fc565b6122ae565b90508281526020810184848401111561245c5761245b612249565b5b6124678482856122fa565b509392505050565b600082601f83011261248457612483612244565b5b813561249484826020860161242d565b91505092915050565b600080604083850312156124b4576124b3611e8c565b5b60006124c2858286016120d9565b925050602083013567ffffffffffffffff8111156124e3576124e2611e91565b5b6124ef8582860161246f565b9150509250929050565b600080604083850312156125105761250f611e8c565b5b600061251e858286016120d9565b925050602061252f858286016120d9565b9150509250929050565b7f4e487b7100000000000000000000000000000000000000000000000000000000600052602260045260246000fd5b6000600282049050600182168061258057607f821691505b60208210810361259357612592612539565b5b50919050565b60006060820190506125ae6000830186612098565b6125bb60208301856121ae565b6125c86040830184612098565b949350505050565b7f546f6b656e20646f6573206e6f74206578697374000000000000000000000000600082015250565b6000612606601483611f5c565b9150612611826125d0565b602082019050919050565b60006020820190508181036000830152612635816125f9565b9050919050565b7f4e487b7100000000000000000000000000000000000000000000000000000000600052601160045260246000fd5b600061267682612003565b91507fffffffffffffffffffffffffffffffffffffffffffffffffffffffffffffffff82036126a8576126a761263c565b5b600182019050919050565b60006060820190506126c860008301866121ae565b6126d56020830185612098565b81810360408301526126e78184611fa8565b9050949350505050565b6000604082019050818103600083015261270b8185611fa8565b905061271a60208301846121ae565b9392505050565b600081519050919050565b600082825260208201905092915050565b600061274882612721565b612752818561272c565b9350612762818560208601611f6d565b61276b81611f97565b840191505092915050565b600060808201905061278b6000830187612098565b6127986020830186612098565b6127a560408301856121ae565b81810360608301526127b7818461273d565b905095945050505050565b6000815190506127d181611ec2565b92915050565b6000602082840312156127ed576127ec611e8c565b5b60006127fb848285016127c2565b91505092915050565b600081905092915050565b600061281a82611f51565b6128248185612804565b9350612834818560208601611f6d565b80840191505092915050565b600061284c828561280f565b9150612858828461280f565b91508190509392505050565b60008190508160005260206000209050919050565b60006020601f8301049050919050565b600082821b905092915050565b6000600883026128c67fffffffffffffffffffffffffffffffffffffffffffffffffffffffffffffffff82612889565b6128d08683612889565b95508019841693508086168417925050509392505050565b6000819050919050565b600061290d61290861290384612003565b6128e8565b612003565b9050919050565b6000819050919050565b612927836128f2565b61293b61293382612914565b848454612896565b825550505050565b600090565b612950612943565b61295b81848461291e565b505050565b5b8181101561297f57612974600082612948565b600181019050612961565b5050565b601f8211156129c45761299581612864565b61299e84612879565b810160208510156129ad578190505b6129c16129b985612879565b830182612960565b50505b505050565b600082821c905092915050565b60006129e7600019846008026129c9565b1980831691505092915050565b6000612a0083836129d6565b9150826002028217905092915050565b612a1982611f51565b67ffffffffffffffff811115612a3257612a3161224e565b5b612a3c8254612568565b612a47828285612983565b600060209050601f831160018114612a7a5760008415612a68578287015190505b612a7285826129f4565b865550612ada565b601f198416612a8886612864565b60005b82811015612ab057848901518255600182019150602085019450602081019050612a8b565b86831015612acd5784890151612ac9601f8916826129d6565b8355505b6001600288020188555050505b505050505050565b60006040820190508181036000830152612afc8185611fa8565b90508181036020830152612b108184611fa8565b90509392505050565b60006040820190508181036000830152612b338185611fa8565b9050612b426020830184612098565b9392505050565b6000604082019050612b5e6000830185612098565b612b6b60208301846121ae565b9392505050565b7f4e487b7100000000000000000000000000000000000000000000000000000000600052601260045260246000fd5b7f4e487b7100000000000000000000000000000000000000000000000000000000600052605160045260246000fdfea264697066735822122048fe4b69cc0d4434beee24eb1513994e14e47daedb4c404a930531e3436ae31a64736f6c634300081c0033",
  "linkReferences": {},
  "deployedLinkReferences": {}
}